:020000040800F2
:100000000028002021170008F9120008FF1200083C
:10001000051300080B13000811130008000000006E
:10002000000000000000000000000000171300089E
:1000300023130008000000002F1300083B130008E2
:100040006917000869170008691700086917000890
:100050006917000869170008691700086917000880
:100060006917000869170008691700086917000870
:100070006917000869170008691700086917000860
:100080006917000869170008691700086917000850
:100090006917000869170008691700086917000840
:1000A0006917000869170008691700086917000830
:1000B00049130008691700080000000069170008CC
:1000C0006917000800000000000000006917000820
:1000D000000000005D130008691700080000000020
:1000E0006917000869170008691700080000000078
:1000F0000000000000000000000000000000000000
:0C01000000000000000000005FF808F1A3
:10010C0010B5054C237833B9044B13B10448AFF345
:10011C0000800123237010BDA0000020000000000F
:10012C00E048000808B5034B1BB103490348AFF383
:10013C00008008BD00000000A4000020E04800087A
:10014C0080B582B000AF00237B6093E04E4A7B68A1
:10015C00134419784D4A7B6813440A461A704C4A6A
:10016C007B6813441978484A7B6813440A461A7012
:10017C00484A7B6832F813301946474801F08AFE2A
:10018C0003461946424A7B6813440A461A707B6838
:10019C00012B0FDC3F4A7B6832F8133019463F487D
:1001AC0001F078FE03461946394A7B6813440A4627
:1001BC001A700EE0374A7B6832F81330194637480C
:1001CC0001F068FE03461946314A7B6813440A461F
:1001DC001A702F4A7B6813441A782B497B680B449E
:1001EC001B789A4243D1284A7B6813441A782749D2
:1001FC007B680B441B789A4239D1294A7B6813449B
:10020C001A7822497B680B441B789A4218D01F4AF3
:10021C007B6813441978224A7B6813440A461A7087
:10022C001A4A7B6813441B78002B20D11D4A7B682B
:10023C00134401221A701C4B4FF496721A6016E08C
:10024C00124A7B6813441B78002B10D1164B1B6889
:10025C00013B154A1360144B1B68002B07D1114A44
:10026C007B68134401221A700F4B64221A607B685E
:10027C0001337B607B68032B7FF768AF00BF00BF47
:10028C000837BD4680BD00BFC4000020C800002058
:10029C00C00000200400002000080140000C0140B8
:1002AC00BC000020D00000200000002080B500AF72
:1002BC003F4B1B68012B58D13E4B1B68002B54D174
:1002CC003D4B1B68002B20D0012B48D13B4B1B68AE
:1002DC00012B46D13A4B1A683A4B1B685A63384B80
:1002EC001B683233364A1360354B1B6840F2E632DA
:1002FC00934203DD324B40F2DD321A602E4B00226A
:10030C001A600A2001F0A6F82BE02C4B1B68012B7D
:10031C0029D1294B01221A602A4B1B6800225A63EF
:10032C00294B1B68642202FB03F2284B1B689A4280
:10033C0003DC012001F08EF816E0244B1B6804331B
:10034C00224A1360204B1B68642202FB03F21F4BF2
:10035C001B6892FBF3F3184601F07CF803E000BF36
:10036C0023E000BF21E000BF1FE0114B1B68012BF5
:10037C000FD1104B1B68002B0BD0114B63221A6052
:10038C00114B1B68114A13600E4B1B6800225A63F9
:10039C000BE00B4B63221A600B4B1B680B4A136070
:1003AC00084B1B6800225A6300BF00BF80BD00BF12
:1003BC00D8000020D4000020DC000020FC0000202D
:1003CC0010000020140100201C000020140000204C
:1003DC0080B500AF834B1B68092B00F2988001A2FB
:1003EC0052F823F0190400086F040008C504000833
:1003FC00450400089B040008F10400081B050008D4
:10040C002F04000885040008DB04000801220221E7
:10041C00754801F056FD00220421734801F051FD8E
:10042C007FE001220221704801F04BFD00220421E3
:10043C006D4801F046FD74E0012202216A4801F08A
:10044C0040FD00220421684801F03BFD01220821F7
:10045C00654801F036FD00221021634801F031FDA2
:10046C005FE000220221604801F02BFD01220421F3
:10047C005D4801F026FD54E0002202215A4801F0AB
:10048C0020FD01220421584801F01BFD49E0002207
:10049C000221554801F015FD01220421524801F0BA
:1004AC0010FD00220821504801F00BFD0122102103
:1004BC004D4801F006FD34E0012202214A4801F0CA
:1004CC0000FD01220421484801F0FBFC29E0012237
:1004DC000221454801F0F5FC01220421424801F0BB
:1004EC00F0FC1EE0012202213F4801F0EAFC01224F
:1004FC0004213D4801F0E5FC012208213A4801F0B5
:10050C00E0FC01221021384801F0DBFC09E000225C
:10051C000221354801F0D5FC00220421324801F0BB
:10052C00D0FC324B1B68092B58D801A252F823F08F
:10053C006505000891050008BD050008E9050008DF
:10054C00E9050008E9050008E90500087B05000835
:10055C00A7050008D305000801220821224801F054
:10056C00B0FC00221021204801F0ABFC37E0012246
:10057C0008211D4801F0A5FC002210211A4801F0A9
:10058C00A0FC2CE000220821174801F09AFC012263
:10059C001021154801F095FC21E000220821124899
:1005AC0001F08FFC012210210F4801F08AFC16E0AB
:1005BC00012208210C4801F084FC012210210A4878
:1005CC0001F07FFC0BE001220821074801F079FCC7
:1005DC0001221021044801F074FC00E000BF00BFB0
:1005EC0080BD00BFD4000020000801400C0000209A
:1005FC0080B500AF334B1B68002B02D0012B1FD0F2
:10060C005DE000222021304801F05BFC00224021FB
:10061C002D4801F056FC2D4BDB78002B4ED02B4B8C
:10062C000022DA70274B01221A60294B01221A6032
:10063C00012000F00FFF4FF47A7000F0F7FE3DE060
:10064C00244B1B68012B03D11E4B00221A6036E091
:10065C001E4BDB78002B03D04FF4FA6000F0E6FE63
:10066C001D4B1B68022B1CD0022B25DC002B02D04F
:10067C00012B0BD020E001222021134801F021FC9A
:10068C0000224021104801F01CFC16E00022202121
:10069C000D4801F016FC012240210B4801F011FC21
:1006AC000BE001222021084801F00BFC0122402123
:1006BC00054801F006FC00E000BF00E000BF00BFF1
:1006CC0080BD00BFD800002000080140D0000020F1
:1006DC00DC000020F40000200C00002080B483B06B
:1006EC0000AF00237B6007E0084A7B6813440022BC
:1006FC001A707B6801337B607B68032BF4DD00BFD1
:10070C0000BF0C37BD4680BC704700BFD000002036
:10071C0080B400AF074B1B680133064A1360054BCE
:10072C001B68632B02DD034B01221A6000BFBD4620
:10073C0080BC70470401002080B500AF9C4B1B6847
:10074C00092B00F24E8201A252F823F08107000817
:10075C000308000885080008070900089309000829
:10076C00490A0008EF0B0008E10A00083B0B0008DF
:10077C00950B00088F4B1B68012B14D100F0FCFE6D
:10078C008D4B1B68013B8C4A13608B4B1B68002BF9
:10079C0006D1874B01221A60884B1B68864A13606E
:1007AC00642000F01BFE864B1B78002B12D0844B70
:1007BC0000221A70834B1B68834A13607C4B032204
:1007CC001A60824B06221A604FF47A7000F006FE13
:1007DC00FFF784FF7A4B5B78002B00F00482784B98
:1007EC0000225A70724B07221A60784B08221A604A
:1007FC00FFF774FFF7E16F4B1B68012B14D100F06E
:10080C00BBFE6D4B1B68013B6B4A13606A4B1B684C
:10081C00002B06D1664B02221A606D4B1B68664A90
:10082C001360642000F0DAFD654B1B78002B12D0AE
:10083C00634B00221A70634B1B68634A13605C4B5A
:10084C0003221A60614B06221A604FF47A7000F092
:10085C00C5FDFFF743FF5A4B5B78002B00F0C581B9
:10086C00574B00225A70524B07221A60574B0822E2
:10087C001A60FFF733FFB8E14E4B1B68012B14D104
:10088C0000F07AFE4C4B1B68013B4B4A13604A4B01
:10089C001B68002B06D1464B00221A60494B1B6883
:1008AC00454A1360642000F099FD454B1B78002BE2
:1008BC0012D0434B00221A70424B1B68424A136001
:1008CC003B4B03221A60414B06221A604FF47A709C
:1008DC0000F084FDFFF702FF394B5B78002B00F032
:1008EC008681374B00225A70314B07221A60374BE6
:1008FC0008221A60FFF7F2FE79E12E4B1B68012BE0
:10090C000FD100F039FE2A4B00221A602D4B1B68C8
:10091C00294A13602F4B01221A60642000F05EFDFF
:10092C0072E1274B1B78002B0DD0254B00221A703F
:10093C00224B1B68244A13601D4B04221A604FF48F
:10094C007A7000F04BFD1E4B5B78002B0AD000F048
:10095C0013FE1B4B00225A70FFF7DAFE4FF47A702D
:10096C0000F03CFD164B9B78002B00F04281144BA1
:10097C0000229A70144B1B68124A13604FF47A7061
:10098C0000F02CFD35E10B4B1B68012B24D100F042
:10099C00F3FD074B00221A600E4B01221A60094B23
:1009AC001B68054A1360642000F018FD2CE100BFA1
:1009BC00D4000020E40000202800002020000020AB
:1009CC00D00000201C000020040100200C0000209E
:1009DC0024000020CC0000208C4B1B78002B0DD069
:1009EC008A4B00221A708A4B1B688A4A13608A4B06
:1009FC0005221A604FF47A7000F0F0FC834B5B78A0
:100A0C00002B0AD000F0B8FD804B00225A70FFF783
:100A1C007FFE4FF47A7000F0E1FC7C4B9B78002B4E
:100A2C0000F0E980794B00229A707A4B1B687B4A64
:100A3C0013604FF47A7000F0D1FCDCE0784B1B684B
:100A4C00012B0FD100F098FD734B00221A60754BEF
:100A5C0001221A60744B1B68744A1360642000F006
:100A6C00BDFCD1E0694B1B78002B13D0674B0022E7
:100A7C001A706D4B1B68674A13606B4B1B686B4A93
:100A8C001360684B01221A60634B00221A606420C9
:100A9C0000F0A4FC5D4B5B78002B0AD000F06CFDE1
:100AAC005A4B00225A70FFF733FE4FF47A7000F065
:100ABC0095FC564B9B78002B00F09F80534B0022EB
:100ACC009A70544B1B68524A13604FF47A7000F0C2
:100ADC0085FC92E04D4B5B78002B0CD000F04CFD6C
:100AEC004A4B00225A704C4B08221A60504B07227A
:100AFC001A60FFF7F3FD454B1B78002B7FD0434B5F
:100B0C0000221A70484B1B68424A1360464B1B6804
:100B1C00464A1360434B01221A603F4B00221A6075
:100B2C00434B06221A60642000F058FC67E0374BF8
:100B3C005B78002B0CD000F01FFD344B00225A7058
:100B4C00354B09221A603A4B09221A60FFF7C6FD91
:100B5C002E4B1B78002B54D02C4B00221A70324B8E
:100B6C001B682C4A1360304B1B68304A13602D4BAA
:100B7C0001221A60284B00221A602D4B06221A60A3
:100B8C00642000F02BFC3CE0204B5B78002B0CD05D
:100B9C0000F0F2FC1D4B00225A701F4B07221A600A
:100BAC00234B08221A60FFF799FD184B1B78002B7A
:100BBC0029D0164B00221A701B4B1B68154A136068
:100BCC00194B1B68194A1360164B01221A60124B01
:100BDC0000221A60164B06221A60642000F0FEFBFD
:100BEC0011E000BF10E000BF0EE000BF0CE000BF42
:100BFC000AE000BF08E000BF06E000BF04E000BF51
:100C0C0002E000BF00E000BF00BF80BDD0000020AC
:100C1C002400002004010020D4000020200000202B
:100C2C00E4000020CC0000201C0000202800002044
:100C3C000C00002080B500AF3D4B1B68062B6BD819
:100C4C0001A252F823F000BF710C0008A10C00089F
:100C5C00D10C0008250D0008250D0008250D0008F5
:100C6C00010D0008334B1B68012B57D1324B1B680D
:100C7C00013B314A1360304B1B68002B06D12C4BC7
:100C8C0001221A602D4B1B682B4A1360642000F064
:100C9C00B9FB43E0274B1B68012B41D1264B1B684A
:100CAC00013B254A1360244B1B68002B06D1204BBB
:100CBC0002221A60224B1B681F4A1360642000F04A
:100CCC00A1FB2DE01B4B1B68012B2BD11A4B1B6876
:100CDC00013B194A1360184B1B68002B06D1144BAF
:100CEC0000221A60174B1B68134A1360642000F033
:100CFC0089FB17E0144B1B68012B15D1124B0022FA
:100D0C001A600B4B01221A600C4B1B680A4A1360C9
:100D1C00642000F077FB07E000BF06E000BF04E0B2
:100D2C0000BF02E000BF00E000BF00BF80BD00BFFD
:100D3C000C000020EC0000202C00002020000020E3
:100D4C00240000201C000020CC00002080B500AF47
:100D5C0000F006FD00F028F800F078F900F000F93A
:100D6C0000F05EF800F048F90D4801F02DFD00216F
:100D7C000C4801F0CDFD642000F030FB642000F045
:100D8C0041FB642000F07AFBFFF7D6FCFFF752FF23
:100D9C00FFF72EFCFFF71CFBFFF788FAF4E700BF08
:100DAC00A00100201401002080B590B000AF07F125
:100DBC00180328220021184603F04AF93B1D002293
:100DCC001A605A609A60DA601A610223BB610123CF
:100DDC00BB621023FB6200237B6307F118031846E8
:100DEC0001F088F80346002B01D000F087F90F239F
:100DFC007B600023BB600023FB6000233B6100236E
:100E0C007B613B1D0021184601F0F4FA0346002BD0
:100E1C0001D000F073F900BF4037BD4680BD000023
:100E2C0080B596B000AF07F1480300221A605A60F3
:100E3C009A60DA6007F1400300221A605A6007F1E9
:100E4C00240300221A605A609A60DA601A615A61AF
:100E5C009A613B1D20220021184603F0F9F83E4B05
:100E6C003E4A1A603C4B4F225A603B4B00229A6020
:100E7C00394B40F2E732DA60374B00221A61364BBD
:100E8C0000225A61344B00229A61334801F04CFC29
:100E9C000346002B01D000F031F94FF48053BB64B2
:100EAC0007F1480319462C4801F094FF0346002B28
:100EBC0001D000F023F9284801F0D2FC0346002BA6
:100ECC0001D000F01BF900233B6400237B6407F185
:100EDC0040031946204802F0FFFA0346002B01D0CC
:100EEC0000F00CF960237B626323BB620023FB627E
:100EFC0000233B6300237B630023BB630023FB6362
:100F0C0007F1240300221946134801F0A5FE0346FD
:100F1C00002B01D000F0F2F800237B600023BB60B3
:100F2C000023FB6000233B6100237B614FF40053E3
:100F3C00BB6100233B623B1D1946074802F024FBB2
:100F4C000346002B01D000F0D9F8034800F046F915
:100F5C0000BF5837BD4680BD08020020002C014060
:100F6C0080B586B000AF07F1080300221A605A6002
:100F7C009A60DA603B4600221A605A601D4B4FF0B3
:100F8C0080421A601B4B41F63F725A60194B00228B
:100F9C009A60184B0922DA60164B00221A61154B25
:100FAC0000229A61134801F0BFFB0346002B01D0CD
:100FBC0000F0A4F84FF48053BB6007F10803194606
:100FCC000C4801F007FF0346002B01D000F096F807
:100FDC0000233B6000237B603B461946054802F02A
:100FEC007BFA0346002B01D000F088F800BF1837BD
:100FFC00BD4680BDA001002080B500AF114B124A48
:10100C001A60104B4FF416525A600E4B00229A6025
:10101C000C4B0022DA600B4B00221A61094B0C229C
:10102C005A61084B00229A61064B0022DA6105488E
:10103C0002F00DFB0346002B01D000F05FF800BF5F
:10104C0080BD00BF5C0100200038014080B586B037
:10105C0000AF07F1080300221A605A609A60DA6048
:10106C001D4B9B691C4A43F0040393611A4B9B690B
:10107C0003F004037B607B68174B9B69164A43F0B3
:10108C0008039361144B9B6903F008033B603B68B6
:10109C0000227E21114800F014FF7E23BB60012347
:1010AC00FB6000233B6102237B6107F108031946B7
:1010BC000A4800F075FD4FF46A73BB600023FB60B7
:1010CC0001233B6107F108031946054800F068FD50
:1010DC0000BF1837BD4680BD00100240000801401B
:1010EC00000C014080B582B000AF786000F0DAF9F6
:1010FC00FFF726F800BF0837BD4680BD80B400AFAF
:10110C0072B600BFFEE7000080B485B000AF154B8F
:10111C009B69144A43F001039361124B9B6903F0E2
:10112C000103BB60BB680F4BDB690E4A43F0805375
:10113C00D3610C4BDB6903F080537B607B680A4BFB
:10114C005B68FB60FB6823F0E063FB60FB6843F0CB
:10115C000073FB60044AFB68536000BF1437BD4644
:10116C0080BC7047001002400000014080B584B084
:10117C0000AF78607B681B68164A93420CD1164B03
:10118C009B69154A43F400639361134B9B6903F409
:10119C000063FB60FB6818E07B681B68B3F1804F51
:1011AC0013D10D4BDB690C4A43F00103D3610A4B9D
:1011BC00DB6903F00103BB60BB68002200211C202B
:1011CC0000F007FC1C2000F020FC00BF1037BD46CF
:1011DC0080BD00BF002C01400010024080B588B0DB
:1011EC0000AF786007F1100300221A605A609A6011
:1011FC00DA607B681B68104A934218D10F4B9B69CD
:10120C000E4A43F0040393610C4B9B6903F00403F7
:10121C00FB60FB684FF480733B6102237B6102230C
:10122C00FB6107F110031946054800F0B9FC00BF3B
:10123C002037BD4680BD00BF002C0140001002408D
:10124C000008014080B588B000AF786007F110034A
:10125C0000221A605A609A60DA607B681B68204A28
:10126C00934239D11F4B9B691E4A43F480439361CF
:10127C001C4B9B6903F48043FB60FB68194B9B6917
:10128C00184A43F004039361164B9B6903F0040363
:10129C00BB60BB684FF400733B6102237B6103238B
:1012AC00FB6107F1100319460F4800F079FC4FF46D
:1012BC0080633B6100237B610023BB6107F110035A
:1012CC001946094800F06CFC00220021252000F092
:1012DC0080FB252000F099FB00BF2037BD4680BD68
:1012EC0000380140001002400008014080B400AFFB
:1012FC00FEE780B400AFFEE780B400AFFEE780B439
:10130C0000AFFEE780B400AFFEE780B400AF00BFD3
:10131C00BD4680BC704780B400AF00BFBD4680BCEA
:10132C00704780B400AF00BFBD4680BC704780B52D
:10133C0000AF00F05BFA00BF80BD000080B500AFCD
:10134C00024801F081FB00BF80BD00BFA00100205E
:10135C0080B500AF024802F059FA00BF80BD00BF53
:10136C005C01002080B586B000AF7860144A154B44
:10137C00D31A7B617B693B61134B1B68002B02D139
:10138C00114B124A1A60104B1A687B6813443A6965
:10139C009A4207D202F032FE03460C221A604FF03A
:1013AC00FF3309E0084B1B68FB60074B1A687B682E
:1013BC001344054A1360FB6818461837BD4680BDB8
:1013CC000028002000040000080100206802002012
:1013DC0080B400AF00BFBD4680BC704780B483B002
:1013EC0000AF7860054A7B681360054B00221A60D9
:1013FC0000BF0C37BD4680BC704700BFE00000202A
:10140C00E400002080B483B000AF7860054A7B68AC
:10141C001360054B00221A6000BF0C37BD4680BC20
:10142C00704700BFE8000020EC00002080B483B0BF
:10143C0000AF7860054A7B681360054B00221A6088
:10144C0000BF0C37BD4680BC704700BFF0000020C9
:10145C00F400002080B483B000AF7860054A7B684C
:10146C001360054B00221A6000BF0C37BD4680BCD0
:10147C00704700BFF8000020FC00002080B483B04F
:10148C0000AF7860054A7B681360054B00221A6038
:10149C0000BF0C37BD4680BC704700BF1800002051
:1014AC000001002080B400AF294B1B68002B0BDD22
:1014BC00274B1B68013B264A1360254B1B68002BEE
:1014CC0002DC244B01221A60234B1B68002B0BDD22
:1014DC00214B1B68013B204A13601F4B1B68002BE0
:1014EC0002DC1E4B01221A601D4B1B68002B0BDD0E
:1014FC001B4B1B68013B1A4A1360194B1B68002BD2
:10150C0002DC184B01221A60174B1B68002B0BDDF9
:10151C00154B1B68013B144A1360134B1B68002BC3
:10152C0002DC124B01221A60114B1B68002B0BDDE5
:10153C000F4B1B68013B0E4A13600D4B1B68002BB5
:10154C0002DC0C4B01221A6000BFBD4680BC704708
:10155C00E0000020E4000020E8000020EC00002067
:10156C00F0000020F4000020F8000020FC00002017
:10157C00180000200001002080B500AF574B1B68FD
:10158C00092B00F2A78001A252F823F0C115000824
:10159C00E11500080116000881160008A1160008C4
:1015AC00C1160008E11600082116000841160008B3
:1015BC00611600084A4B1B681A464A494A4802F011
:1015CC004FFD03469AB24FF47A734749474802F0ED
:1015DC008BF880E0424B1B681A464549424802F0A2
:1015EC003FFD03469AB24FF47A733F493F4802F0ED
:1015FC007BF870E03A4B1B681A463E493A4802F0B9
:10160C002FFD03469AB24FF47A733749374802F0EC
:10161C006BF860E0324B1B681A463749324802F0CF
:10162C001FFD03469AB24FF47A732F492F4802F0EC
:10163C005BF850E02A4B1B681A4630492A4802F0E6
:10164C000FFD03469AB24FF47A732749274802F0EC
:10165C004BF840E0224B1B681A462949224802F0FD
:10166C00FFFC03469AB24FF47A731F491F4802F0ED
:10167C003BF830E0234B1B681A4623491A4802F00A
:10168C00EFFC03469AB24FF47A731749174802F0ED
:10169C002BF820E01B4B1B681A461C49124802F021
:1016AC00DFFC03469AB24FF47A730F490F4802F0ED
:1016BC001BF810E0134B1B681A4615490A4802F038
:1016CC00CFFC03469AB24FF47A730749074802F0ED
:1016DC000BF800E000BF00BF80BD00BFD4000020AD
:1016EC0028000020F8480008E80100205C010020D8
:1016FC000449000814490008204900082C49000836
:10170C003C490008040100204849000854490008DD
:10171C00644900080C480D490D4A002302E0D458D6
:10172C00C4500433C4188C42F9D30A4A0A4C00231F
:10173C0001E013600432A242FBD3FFF749FE02F032
:10174C0063FCFFF703FB704700000020A0000020A3
:10175C00D4490008A000002064020020FEE700002D
:10176C0080B500AF084B1B68074A43F010031360A9
:10177C00032000F023F90F2000F008F8FFF7C4FC59
:10178C000023184680BD00BF0020024080B582B007
:10179C0000AF7860124B1A68124B1B7819464FF445
:1017AC007A73B3FBF1F3B2FBF3F3184600F03BF999
:1017BC000346002B01D001230EE07B680F2B0AD8C7
:1017CC00002279684FF0FF3000F003F9064A7B687D
:1017DC001360002300E0012318460837BD4680BD86
:1017EC0030000020380000203400002080B400AF0E
:1017FC00054B1B781A46054B1B681344034A1360B0
:10180C0000BFBD4680BC704738000020500200204D
:10181C0080B400AF024B1B681846BD4680BC7047B5
:10182C005002002080B485B000AF78607B6803F074
:10183C000703FB600C4BDB68BB60BA684FF6FF0319
:10184C001340BB60FB681A02BB68134343F0BF63D1
:10185C0043F40033BB60044ABB68D36000BF143749
:10186C00BD4680BC704700BF00ED00E080B400AF07
:10187C00044BDB681B0A03F007031846BD4680BC0B
:10188C00704700BF00ED00E080B483B000AF0346AA
:10189C00FB7197F90730002B0BDBFB7903F01F0270
:1018AC00064997F907305B09012000FA02F241F86A
:1018BC00232000BF0C37BD4680BC704700E100E020
:1018CC0080B483B000AF03463960FB7197F90730E1
:1018DC00002B0ADB3B68DAB20C4997F9073012018E
:1018EC00D2B20B4483F800230AE03B68DAB2084911
:1018FC00FB7903F00F03043B1201D2B20B441A76AE
:10190C0000BF0C37BD4680BC704700BF00E100E053
:10191C0000ED00E080B489B000AFF860B9607A6087
:10192C00FB6803F00703FB61FB69C3F10703042B9E
:10193C0028BF0423BB61FB690433062B02D9FB6966
:10194C00033B00E000237B614FF0FF32BB6902FADE
:10195C0003F3DA43BB681A407B699A404FF0FF31BE
:10196C007B6901FA03F3D9437B680B401343184698
:10197C002437BD4680BC704780B582B000AF78601C
:10198C007B68013BB3F1807F01D301230FE00A4A4E
:10199C007B68013B53600F214FF0FF30FFF790FF46
:1019AC00054B00229A60044B07221A60002318464C
:1019BC000837BD4680BD00BF10E000E080B582B0A6
:1019CC0000AF78607868FFF72DFF00BF0837BD4681
:1019DC0080BD80B586B000AF0346B9607A60FB73FA
:1019EC0000237B61FFF742FF78617A68B9687869F8
:1019FC00FFF790FF024697F90F3011461846FFF794
:101A0C005FFF00BF1837BD4680BD80B582B000AF08
:101A1C000346FB7197F907301846FFF735FF00BFF7
:101A2C000837BD4680BD80B582B000AF786078685D
:101A3C00FFF7A2FF034618460837BD4680BD80B4A9
:101A4C0085B000AF78600023FB737B6893F821307E
:101A5C00022B08D07B6804229A637B68002283F8EF
:101A6C002020012320E07B681B681A687B681B68B8
:101A7C0022F00E021A607B681B681A687B681B6870
:101A8C0022F001021A607B681A6C7B68DB6B012107
:101A9C0001FA02F25A607B68012283F821207B68EC
:101AAC00002283F82020FB7B18461437BD4680BCEF
:101ABC007047000080B584B000AF78600023FB73E2
:101ACC007B6893F82130022B05D07B6804229A6343
:101ADC000123FB7351E07B681B681A687B681B68E9
:101AEC0022F00E021A607B681B681A687B681B6800
:101AFC0022F001021A607B681B68224A934229D0AB
:101B0C007B681B68204A934222D07B681B681F4A63
:101B1C0093421AD07B681B681D4A934212D07B6893
:101B2C001B681C4A93420AD07B681B681A4A934272
:101B3C0002D14FF480130EE04FF080730BE04FF4A2
:101B4C00803308E04FF4805305E04FF4807302E0DB
:101B5C00102300E00123114A53607B68012283F8B3
:101B6C0021207B68002283F820207B685B6B002B94
:101B7C0003D07B685B6B78689847FB7B1846103703
:101B8C00BD4680BD080002401C00024030000240EF
:101B9C0044000240580002406C0002400000024029
:101BAC0080B48BB000AF7860396000237B62002377
:101BBC003B6248E101227B6A02FA03F3FB613B685A
:101BCC001B68FA691340BB61BA69FB699A4240F021
:101BDC0037813B685B68A34A93425ED0A14A93422B
:101BEC0075D8A14A934258D09F4A93426FD89F4AC6
:101BFC00934252D09D4A934269D89D4A93424CD00D
:101C0C009B4A934263D89B4A934246D0994A93424B
:101C1C005DD8122B2AD8122B59D801A252F823F0D6
:101C2C00A71C0008811C0008931C0008D51C000888
:101C3C00DB1C0008DB1C0008DB1C0008DB1C00089C
:101C4C00DB1C0008DB1C0008DB1C0008DB1C00088C
:101C5C00DB1C0008DB1C0008DB1C0008DB1C00087C
:101C6C00DB1C0008891C00089D1C0008824A93425A
:101C7C0013D02CE03B68DB683B6229E03B68DB68F7
:101C8C0004333B6224E03B68DB6808333B621FE0B3
:101C9C003B68DB680C333B621AE03B689B68002BAB
:101CAC0002D104233B6213E03B689B68012B05D1F6
:101CBC0008233B627B68FA691A6109E008233B62DE
:101CCC007B68FA695A6103E000233B6200E000BFC5
:101CDC00BB69FF2B01D87B6801E07B6804337B6117
:101CEC00BB69FF2B02D87B6A9B0002E07B6A083B36
:101CFC009B003B617B691A680F213B6901FA03F376
:101D0C00DB431A40396A3B6901FA03F31A437B69D6
:101D1C001A603B685B6803F08053002B00F09080E6
:101D2C00564B9B69554A43F001039361534B9B6996
:101D3C0003F00103BB60BB68514A7B6A9B0802330A
:101D4C0052F82330FB607B6A03F003039B000F22E5
:101D5C0002FA03F3DB43FA681340FB607B68494AE1
:101D6C0093420DD07B68484A934207D07B68474A20
:101D7C00934201D1022304E0032302E0012300E09B
:101D8C0000237A6A02F0030292009340FA6813432C
:101D9C00FB603B497B6A9B080233FA6841F82320BD
:101DAC003B685B6803F48033002B06D0384B1A6811
:101DBC003749BB6913430B6006E0354B1A68BB69A6
:101DCC00DB43334913400B603B685B6803F400331F
:101DDC00002B06D02E4B5A682D49BB6913434B6020
:101DEC0006E02B4B5A68BB69DB43294913404B6017
:101DFC003B685B6803F48013002B06D0244B9A6875
:101E0C002349BB6913438B6006E0214B9A68BB697D
:101E1C00DB431F4913408B603B685B6803F4001382
:101E2C00002B06D01A4BDA681949BB691343CB60F7
:101E3C0006E0174BDA68BB69DB4315491340CB60EE
:101E4C007B6A01337B623B681A687B6A22FA03F374
:101E5C00002B7FF4AFAE00BF00BF2C37BD4680BC5B
:101E6C00704700BF0000321000003110000022103B
:101E7C000000211000001210000011100010024090
:101E8C000000014000080140000C0140001001401E
:101E9C000004014080B485B000AF78600B467B80B5
:101EAC007B689A687B881340002B02D00123FB735C
:101EBC0001E00023FB73FB7B18461437BD4680BC46
:101ECC00704780B483B000AF78600B467B801346BC
:101EDC007B707B78002B03D07A887B681A6103E0D7
:101EEC007B881A047B681A6100BF0C37BD4680BC26
:101EFC007047000080B586B000AF78607B68002B1F
:101F0C0001D101236CE27B681B6803F00103002BF9
:101F1C0000F08780924B5B6803F00C03042B0CD011
:101F2C008F4B5B6803F00C03082B12D18C4B5B6856
:101F3C0003F48033B3F5803F0BD1894B1B6803F45A
:101F4C000033002B6CD07B685B68002B68D10123BD
:101F5C0046E27B685B68B3F5803F06D1804B1B681B
:101F6C007F4A43F4803313602EE07B685B68002B60
:101F7C000CD17B4B1B687A4A23F480331360784B6B
:101F8C001B68774A23F4802313601DE07B685B6831
:101F9C00B3F5A02F0CD1724B1B68714A43F480230C
:101FAC0013606F4B1B686E4A43F4803313600BE075
:101FBC006B4B1B686A4A23F480331360684B1B68B5
:101FCC00674A23F4802313607B685B68002B13D073
:101FDC00FFF71EFC386108E0FFF71AFC02463B696C
:101FEC00D31A642B01D90323FAE15D4B1B6803F46C
:101FFC000033002BF0D014E0FFF70AFC386108E046
:10200C00FFF706FC02463B69D31A642B01D9032364
:10201C00E6E1534B1B6803F40033002BF0D100E0D6
:10202C0000BF7B681B6803F00203002B63D04C4B92
:10203C005B6803F00C03002B0BD0494B5B6803F07F
:10204C000C03082B1CD1464B5B6803F48033002B2C
:10205C0016D1434B1B6803F00203002B05D07B68A1
:10206C001B69012B01D00123BAE13D4B1B6823F006
:10207C00F8027B685B69DB00394913430B603AE07B
:10208C007B681B69002B20D0364B01221A60FFF7AE
:10209C00BFFB386108E0FFF7BBFB02463B69D31A74
:1020AC00022B01D903239BE12D4B1B6803F0020388
:1020BC00002BF0D02A4B1B6823F0F8027B685B697D
:1020CC00DB00274913430B6015E0264B00221A60F6
:1020DC00FFF79EFB386108E0FFF79AFB02463B696D
:1020EC00D31A022B01D903237AE11D4B1B6803F091
:1020FC000203002BF0D17B681B6803F00803002B54
:10210C003AD07B689B69002B19D0174B01221A60BF
:10211C00FFF77EFB386108E0FFF77AFB02463B696C
:10212C00D31A022B01D903235AE10D4B5B6A03F03E
:10213C000203002BF0D0012000F0D8FA1CE00A4B6F
:10214C0000221A60FFF764FB38610FE0FFF760FBB9
:10215C0002463B69D31A022B08D9032340E100BF86
:10216C000010024000004242800442429E4B5B6AD7
:10217C0003F00203002BE9D17B681B6803F0040316
:10218C00002B00F0A6800023FB75974BDB6903F056
:10219C008053002B0DD1944BDB69934A43F0805351
:1021AC00D361914BDB6903F08053BB60BB680123A7
:1021BC00FB758E4B1B6803F48073002B18D18B4B73
:1021CC001B688A4A43F480731360FFF721FB386164
:1021DC0008E0FFF71DFB02463B69D31A642B01D9BB
:1021EC000323FDE0814B1B6803F48073002BF0D0BC
:1021FC007B68DB68012B06D17B4B1B6A7A4A43F068
:10220C00010313622DE07B68DB68002B0CD1764B4D
:10221C001B6A754A23F001031362734B1B6A724AE3
:10222C0023F0040313621CE07B68DB68052B0CD1E4
:10223C006D4B1B6A6C4A43F0040313626A4B1B6AB6
:10224C00694A43F0010313620BE0674B1B6A664A51
:10225C0023F001031362644B1B6A634A23F00403EB
:10226C0013627B68DB68002B15D0FFF7D1FA38615D
:10227C000AE0FFF7CDFA02463B69D31A41F28832E5
:10228C00934201D90323ABE0574B1B6A03F00203C3
:10229C00002BEED014E0FFF7BBFA38610AE0FFF731
:1022AC00B7FA02463B69D31A41F28832934201D9FC
:1022BC00032395E04C4B1B6A03F00203002BEED179
:1022CC00FB7D012B05D1484BDB69474A23F080533A
:1022DC00D3617B68DB69002B00F08180424B5B682B
:1022EC0003F00C03082B61D07B68DB69022B46D111
:1022FC003F4B00221A60FFF78BFA386108E0FFF7BA
:10230C0087FA02463B69D31A022B01D9032367E0F3
:10231C00354B1B6803F00073002BF0D17B681B6AF4
:10232C00B3F5803F08D1304B5B6823F400327B68F7
:10233C009B682D4913434B602B4B5B6823F4741241
:10234C007B68196A7B685B6A0B43274913434B60B4
:10235C00274B01221A60FFF75BFA386108E0FFF7A0
:10236C0057FA02463B69D31A022B01D9032337E0F3
:10237C001D4B1B6803F00073002BF0D02FE01C4B9F
:10238C0000221A60FFF744FA386108E0FFF740FAC0
:10239C0002463B69D31A022B01D9032320E0124BCE
:1023AC001B6803F00073002BF0D118E07B68DB692D
:1023BC00012B01D1012313E00B4B5B68FB60FB6825
:1023CC0003F480327B681B6A9A4206D1FB6803F4E3
:1023DC0070127B685B6A9A4201D0012300E00023F3
:1023EC0018461837BD4680BD0010024000700040F2
:1023FC006000424280B584B000AF786039607B6881
:10240C00002B01D10123D0E06A4B1B6803F00703BA
:10241C003A689A4210D9674B1B6823F0070265494A
:10242C003B6813430B60634B1B6803F007033A686C
:10243C009A4201D00123B8E07B681B6803F00203C9
:10244C00002B20D07B681B6803F00403002B05D005
:10245C00594B5B68584A43F4E06353607B681B68D4
:10246C0003F00803002B05D0534B5B68524A43F42E
:10247C0060535360504B5B6823F0F0027B689B68A1
:10248C004D4913434B607B681B6803F00103002B21
:10249C0040D07B685B68012B07D1474B1B6803F46A
:1024AC000033002B15D101237FE07B685B68022B86
:1024BC0007D1414B1B6803F00073002B09D101239A
:1024CC0073E03D4B1B6803F00203002B01D1012389
:1024DC006BE0394B5B6823F003027B685B68364921
:1024EC0013434B60FFF794F9F8600AE0FFF790F99B
:1024FC000246FB68D31A41F28832934201D9032376
:10250C0053E02D4B5B6803F00C027B685B689B000F
:10251C009A42EBD1274B1B6803F007033A689A42A7
:10252C0010D2244B1B6823F0070222493B6813434B
:10253C000B60204B1B6803F007033A689A4201D0EA
:10254C00012332E07B681B6803F00403002B08D0E6
:10255C00194B5B6823F4E0627B68DB681649134314
:10256C004B607B681B6803F00803002B09D0124BEF
:10257C005B6823F460527B681B69DB000E491343D4
:10258C004B6000F021F802460B4B5B681B0903F013
:10259C000F030A49CB5C22FA03F3094A1360094B77
:1025AC001B681846FFF7F2F8002318461037BD4693
:1025BC0080BD00BF0020024000100240804900088E
:1025CC00300000203400002090B48AB000AF2A4BB9
:1025DC003C1D0FCB84E80F0040F201233B8000230D
:1025EC00FB610023BB6100237B6200237B61002322
:1025FC003B62224B5B68FB61FB6903F00C03042B11
:10260C0002D0082B03D02DE01D4B3B622DE0FB6963
:10261C009B0C03F00F0307F12802134413F8243C1E
:10262C007B61FB6903F48033002B13D0134B5B6885
:10263C005B0C03F0010307F12802134413F8283C48
:10264C00BB617B690E4A02FB03F2BB69B2FBF3F37D
:10265C007B6204E07B690B4A02FB03F37B627B6ABF
:10266C003B6202E0064B3B6200BF3B6A18462837D0
:10267C00BD4690BC704700BF704900080010024076
:10268C0000127A0000093D0080B400AF024B1B68B9
:10269C001846BD4680BC70473000002080B500AFA6
:1026AC00FFF7F2FF0246054B5B681B0A03F00703BA
:1026BC000349CB5C22FA03F3184680BD001002409C
:1026CC009049000880B500AFFFF7DEFF0246054BCE
:1026DC005B68DB0A03F007030349CB5C22FA03F3C4
:1026EC00184680BD001002409049000880B485B0A7
:1026FC0000AF78600A4B1B680A4AA2FB03235B0AF3
:10270C007A6802FB03F3FB6000BFFB685A1EFA6099
:10271C00002BF9D100BF00BF1437BD4680BC7047F9
:10272C0030000020D34D621080B582B000AF7860CD
:10273C007B68002B01D1012341E07B6893F83D308D
:10274C00DBB2002B06D17B68002283F83C20786832
:10275C00FEF70CFD7B68022283F83D207B681A682B
:10276C007B6804331946104600F01CFC7B68012280
:10277C0083F846207B68012283F83E207B68012287
:10278C0083F83F207B68012283F840207B6801227C
:10279C0083F841207B68012283F842207B68012268
:1027AC0083F843207B68012283F844207B68012254
:1027BC0083F845207B68012283F83D2000231846CE
:1027CC000837BD4680BD000080B485B000AF78608E
:1027DC007B6893F83D30DBB2012B01D0012335E04F
:1027EC007B68022283F83D207B681B68DA687B6873
:1027FC001B6842F00102DA607B681B68164A934240
:10280C0009D07B681B68B3F1804F04D07B681B68D0
:10281C00124A934211D17B681B689B6803F0070333
:10282C00FB60FB68062B10D07B681B681A687B6802
:10283C001B6842F001021A6007E07B681B681A688B
:10284C007B681B6842F001021A600023184614379B
:10285C00BD4680BC704700BF002C01400004004006
:10286C0080B582B000AF78607B68002B01D101236A
:10287C0041E07B6893F83D30DBB2002B06D17B68DE
:10288C00002283F83C20786800F039F87B6802223B
:10289C0083F83D207B681A687B6804331946104620
:1028AC0000F080FB7B68012283F846207B680122C4
:1028BC0083F83E207B68012283F83F207B6801224D
:1028CC0083F840207B68012283F841207B68012239
:1028DC0083F842207B68012283F843207B68012225
:1028EC0083F844207B68012283F845207B68012211
:1028FC0083F83D20002318460837BD4680BD80B4C0
:10290C0083B000AF786000BF0C37BD4680BC704709
:10291C0080B584B000AF786039603B68002B09D17A
:10292C007B6893F83E30DBB2012B14BF01230023EC
:10293C00DBB222E03B68042B09D17B6893F83F3073
:10294C00DBB2012B14BF01230023DBB215E03B6883
:10295C00082B09D17B6893F84030DBB2012B14BFF4
:10296C0001230023DBB208E07B6893F84130DBB233
:10297C00012B14BF01230023DBB2002B01D0012358
:10298C0059E03B68002B04D17B68022283F83E207F
:10299C0013E03B68042B04D17B68022283F83F20B0
:1029AC000BE03B68082B04D17B68022283F84020A3
:1029BC0003E07B68022283F841207B681B680122BC
:1029CC003968184600F064FD7B681B681C4A93420A
:1029DC0007D17B681B685A6C7B681B6842F4004209
:1029EC005A647B681B68164A934209D07B681B6843
:1029FC00B3F1804F04D07B681B68124A934211D10B
:102A0C007B681B689B6803F00703FB60FB68062B65
:102A1C0010D07B681B681A687B681B6842F0010247
:102A2C001A6007E07B681B681A687B681B6842F0B9
:102A3C0001021A60002318461037BD4680BD00BF46
:102A4C00002C01400004004080B582B000AF7860DB
:102A5C007B681B681B6903F00203022B22D17B6885
:102A6C001B68DB6803F00203022B1BD17B681B681D
:102A7C006FF002021A617B6801221A777B681B686F
:102A8C009B6903F00303002B03D0786800F06FFA06
:102A9C0005E0786800F062FA786800F071FA7B68FB
:102AAC0000221A777B681B681B6903F00403042B54
:102ABC0022D17B681B68DB6803F00403042B1BD159
:102ACC007B681B686FF004021A617B6802221A771C
:102ADC007B681B689B6903F44073002B03D07868F8
:102AEC0000F045FA05E0786800F038FA786800F0F4
:102AFC0047FA7B6800221A777B681B681B6903F016
:102B0C000803082B22D17B681B68DB6803F00803E1
:102B1C00082B1BD17B681B686FF008021A617B685D
:102B2C0004221A777B681B68DB6903F00303002B14
:102B3C0003D0786800F01BFA05E0786800F00EFA14
:102B4C00786800F01DFA7B6800221A777B681B6896
:102B5C001B6903F01003102B22D17B681B68DB6808
:102B6C0003F01003102B1BD17B681B686FF0100255
:102B7C001A617B6808221A777B681B68DB6903F48F
:102B8C004073002B03D0786800F0F1F905E0786809
:102B9C0000F0E4F9786800F0F3F97B6800221A770A
:102BAC007B681B681B6903F00103012B0ED17B684A
:102BBC001B68DB6803F00103012B07D17B681B68E2
:102BCC006FF001021A617868FEF78CFA7B681B685B
:102BDC001B6903F08003802B0ED17B681B68DB68BC
:102BEC0003F08003802B07D17B681B686FF0800299
:102BFC001A61786800F022FD7B681B681B6903F082
:102C0C004003402B0ED17B681B68DB6803F040034C
:102C1C00402B07D17B681B686FF040021A61786803
:102C2C0000F0B7F97B681B681B6903F02003202BAD
:102C3C000ED17B681B68DB6803F02003202B07D1C7
:102C4C007B681B686FF020021A61786800F0EDFC5D
:102C5C0000BF0837BD4680BD80B584B000AFF860BA
:102C6C00B9607A60FB6893F83C30012B01D10223E8
:102C7C00ACE0FB68012283F83C207B680C2B00F253
:102C8C009F8001A252F823F0C92C0008CD2D00081A
:102C9C00CD2D0008CD2D0008092D0008CD2D0008E4
:102CAC00CD2D0008CD2D00084B2D0008CD2D000892
:102CBC00CD2D0008CD2D00088B2D0008FB681B685E
:102CCC00B968184600F0C6F9FB681B689A69FB687E
:102CDC001B6842F008029A61FB681B689A69FB68E2
:102CEC001B6822F004029A61FB681B689969BB6837
:102CFC001A69FB681B680A439A6162E0FB681B68EF
:102D0C00B968184600F00CFAFB681B689A69FB68F6
:102D1C001B6842F400629A61FB681B689A69FB6845
:102D2C001B6822F480629A61FB681B689969BB6816
:102D3C001B691A02FB681B680A439A6141E0FB6835
:102D4C001B68B968184600F055FAFB681B68DA690D
:102D5C00FB681B6842F00802DA61FB681B68DA69E1
:102D6C00FB681B6822F00402DA61FB681B68D969F6
:102D7C00BB681A69FB681B680A43DA6121E0FB68CF
:102D8C001B68B968184600F09FFAFB681B68DA6983
:102D9C00FB681B6842F40062DA61FB681B68DA6945
:102DAC00FB681B6822F48062DA61FB681B68D969D6
:102DBC00BB681B691A02FB681B680A43DA6100E0F6
:102DCC0000BFFB68002283F83C2000231846103714
:102DDC00BD4680BD80B584B000AF786039607B683B
:102DEC0093F83C30012B01D10223B3E07B68012224
:102DFC0083F83C207B68022283F83D207B681B68AB
:102E0C009B68FB60FB6823F07703FB60FB6823F493
:102E1C007F43FB607B681B68FA689A603B681B68A1
:102E2C00B3F5005F3ED0B3F5005F00F28780B3F5D9
:102E3C00805F00F08580B3F5805F7FD8702B1AD04F
:102E4C00702B7BD8602B50D0602B77D8502B3CD07C
:102E5C00502B73D8402B58D0402B6FD8302B64D0CC
:102E6C00302B6BD8202B60D0202B67D8002B5CD05C
:102E7C00102B5AD062E07B6818683B6899683B68F5
:102E8C005A683B68DB6800F0E4FA7B681B689B6857
:102E9C00FB60FB6843F07703FB607B681B68FA6898
:102EAC009A604EE07B6818683B6899683B685A6882
:102EBC003B68DB6800F0CDFA7B681B689A687B681E
:102ECC001B6842F480429A603BE07B6818683B6860
:102EDC0059683B68DB681A4600F044FA7B681B684B
:102EEC005021184600F09BFA2BE07B6818683B6871
:102EFC0059683B68DB681A4600F062FA7B681B680D
:102F0C006021184600F08BFA1BE07B6818683B6860
:102F1C0059683B68DB681A4600F024FA7B681B682A
:102F2C004021184600F07BFA0BE07B681A683B687E
:102F3C001B681946104600F072FA02E000BF00E070
:102F4C0000BF7B68012283F83D207B68002283F858
:102F5C003C20002318461037BD4680BD80B483B09A
:102F6C0000AF786000BF0C37BD4680BC704780B4A2
:102F7C0083B000AF786000BF0C37BD4680BC704793
:102F8C0080B483B000AF786000BF0C37BD4680BC06
:102F9C00704780B483B000AF786000BF0C37BD467B
:102FAC0080BC704780B485B000AF786039607B68B6
:102FBC001B68FB607B68254A934207D07B68B3F1A2
:102FCC00804F03D07B68224A934208D1FB6823F0E0
:102FDC007003FB603B685B68FA681343FB607B68BB
:102FEC001A4A934207D07B68B3F1804F03D07B68B9
:102FFC00174A934208D1FB6823F44073FB603B688B
:10300C00DB68FA681343FB60FB6823F080023B68C3
:10301C005B691343FB607B68FA681A603B689A68CB
:10302C007B68DA623B681A687B689A627B68074A3D
:10303C00934203D13B681A697B681A637B6801224F
:10304C005A6100BF1437BD4680BC7047002C01404C
:10305C000004004080B487B000AF786039607B68B2
:10306C001B6A23F001027B681A627B681B6A7B6116
:10307C007B685B683B617B689B69FB60FB6823F04A
:10308C007003FB60FB6823F00303FB603B681B6869
:10309C00FA681343FB607B6923F002037B613B6896
:1030AC009B687A6913437B617B681C4A93420CD101
:1030BC007B6923F008037B613B68DB687A69134307
:1030CC007B617B6923F004037B617B68134A934229
:1030DC0011D13B6923F480733B613B6923F400738A
:1030EC003B613B685B693A6913433B613B689B6995
:1030FC003A6913433B617B683A695A607B68FA68AA
:10310C009A613B685A687B685A637B687A691A6271
:10311C0000BF1C37BD4680BC704700BF002C01406F
:10312C0080B487B000AF786039607B681B6A23F08D
:10313C0010027B681A627B681B6A7B617B685B6828
:10314C003B617B689B69FB60FB6823F4E043FB609D
:10315C00FB6823F44073FB603B681B681B02FA6836
:10316C001343FB607B6923F020037B613B689B6806
:10317C001B017A6913437B617B681D4A93420DD115
:10318C007B6923F080037B613B68DB681B017A69F8
:10319C0013437B617B6923F040037B617B68144A9A
:1031AC00934213D13B6923F480633B613B6923F465
:1031BC0000633B613B685B699B003A6913433B616D
:1031CC003B689B699B003A6913433B617B683A6996
:1031DC005A607B68FA689A613B685A687B689A63A4
:1031EC007B687A691A6200BF1C37BD4680BC704789
:1031FC00002C014080B487B000AF786039607B68E8
:10320C001B6A23F480727B681A627B681B6A7B6181
:10321C007B685B683B617B68DB69FB60FB6823F068
:10322C007003FB60FB6823F00303FB603B681B68C7
:10323C00FA681343FB607B6923F400737B613B6882
:10324C009B681B027A6913437B617B681D4A93421E
:10325C000DD17B6923F400637B613B68DB681B0247
:10326C007A6913437B617B6923F480637B617B68A0
:10327C00144A934213D13B6923F480533B613B695D
:10328C0023F400533B613B685B691B013A691343B0
:10329C003B613B689B691B013A6913433B617B684B
:1032AC003A695A607B68FA68DA613B685A687B68ED
:1032BC00DA637B687A691A6200BF1C37BD4680BC32
:1032CC00704700BF002C014080B487B000AF78601D
:1032DC0039607B681B6A23F480527B681A627B68B6
:1032EC001B6A3B617B685B687B617B68DB69FB60AD
:1032FC00FB6823F4E043FB60FB6823F44073FB6042
:10330C003B681B681B02FA681343FB603B6923F4A0
:10331C0000533B613B689B681B033A6913433B6159
:10332C007B680F4A934209D17B6923F480437B610C
:10333C003B685B699B017A6913437B617B687A69A3
:10334C005A607B68FA68DA613B685A687B681A6471
:10335C007B683A691A6200BF1C37BD4680BC704757
:10336C00002C014080B487B000AFF860B9607A607F
:10337C00FB681B6A7B61FB681B6A23F00102FB681C
:10338C001A62FB689B693B613B6923F0F0033B616C
:10339C007B681B013A6913433B617B6923F00A0389
:1033AC007B617A69BB6813437B61FB683A699A61FC
:1033BC00FB687A691A6200BF1C37BD4680BC704737
:1033CC0080B487B000AFF860B9607A60FB681B6AA4
:1033DC0023F01002FB681A62FB689B697B61FB6837
:1033EC001B6A3B617B6923F470437B617B681B0325
:1033FC007A6913437B613B6923F0A0033B61BB6893
:10340C001B013A6913433B61FB687A699A61FB685B
:10341C003A691A6200BF1C37BD4680BC704780B445
:10342C0085B000AF786039607B689B68FB60FB6897
:10343C0023F07003FB603A68FB68134343F0070307
:10344C00FB607B68FA689A6000BF1437BD4680BC8D
:10345C00704780B487B000AFF860B9607A603B60A9
:10346C00FB689B687B617B6923F47F437B613B68D2
:10347C001A027B681A43BB6813437A6913437B6156
:10348C00FB687A699A6000BF1C37BD4680BC7047E8
:10349C0080B487B000AFF860B9607A60BB6803F0A5
:1034AC001F03012202FA03F37B61FB681A6A7B6932
:1034BC00DB431A40FB681A62FB681A6ABB6803F0AC
:1034CC001F03796801FA03F31A43FB681A6200BF01
:1034DC001C37BD4680BC704780B485B000AF7860A7
:1034EC0039607B6893F83C30012B01D1022341E019
:1034FC007B68012283F83C207B68022283F83D2004
:10350C007B681B685B68FB607B681B689B68BB60A7
:10351C00FB6823F07003FB603B681B68FA6813437D
:10352C00FB607B681B68FA685A607B681B68144AEE
:10353C00934209D07B681B68B3F1804F04D07B6841
:10354C001B68104A93420CD1BB6823F08003BB600C
:10355C003B685B68BA681343BB607B681B68BA68DE
:10356C009A607B68012283F83D207B68002283F8F7
:10357C003C20002318461437BD4680BC704700BF62
:10358C00002C01400004004080B485B000AF78608E
:10359C0039600023FB607B6893F83C30012B01D130
:1035AC0002233DE07B68012283F83C20FB6823F07A
:1035BC00FF023B68DB681343FB60FB6823F440723B
:1035CC003B689B681343FB60FB6823F480623B6899
:1035DC005B681343FB60FB6823F400623B681B6869
:1035EC001343FB60FB6823F480523B681B69134355
:1035FC00FB60FB6823F400523B685B691343FB6080
:10360C00FB6823F480423B68DB691343FB607B68F7
:10361C001B68FA685A647B68002283F83C200023FC
:10362C0018461437BD4680BC704780B483B000AFD9
:10363C00786000BF0C37BD4680BC704780B483B047
:10364C0000AF786000BF0C37BD4680BC704780B5BA
:10365C0082B000AF78607B68002B01D101233FE082
:10366C007B6893F83D30DBB2002B06D17B680022DF
:10367C0083F83C207868FDF7E5FD7B68242283F80D
:10368C003D207B681B68DA687B681B6822F400525B
:10369C00DA60786800F024FC7B681B681A697B6828
:1036AC001B6822F490421A617B681B685A697B681C
:1036BC001B6822F02A025A617B681B68DA687B68F7
:1036CC001B6842F40052DA607B6800221A647B6843
:1036DC00202283F83D207B68202283F83E200023A3
:1036EC0018460837BD4680BD80B58AB002AFF86079
:1036FC00B9603B601346FB8000237B61FB6893F849
:10370C003D30DBB2202B7CD1BB68002B02D0FB8878
:10371C00002B01D1012375E0FB6893F83C30012BA1
:10372C0001D102236EE0FB68012283F83C20FB6888
:10373C0000221A64FB68212283F83D20FEF768F80A
:10374C007861FB68FA889A84FB68FA88DA84FB68EB
:10375C009B68B3F5805F08D1FB681B69002B04D113
:10376C000023FB61BB68BB6103E0BB68FB6100230A
:10377C00BB61FB68002283F83C202AE03B68009385
:10378C007B6900228021F86800F010FA0346002BB8
:10379C0001D0032336E0FB69002B0BD1BB691B88DE
:1037AC001A46FB681B68C2F308025A60BB690233F5
:1037BC00BB6107E0FB691A78FB681B685A60FB6900
:1037CC000133FB61FB68DB8C9BB2013B9AB2FB685B
:1037DC00DA84FB68DB8C9BB2002BCFD13B68009367
:1037EC007B6900224021F86800F0E0F90346002BC9
:1037FC0001D0032306E0FB68202283F83D20002340
:10380C0000E0022318462037BD4680BD80B58AB043
:10381C0000AF78607B681B681B687B627B681B68E9
:10382C00DB683B627B681B685B69FB610023BB61E7
:10383C0000237B617B6A03F00F03BB61BB69002B28
:10384C000DD17B6A03F02003002B08D03B6A03F0F8
:10385C002003002B03D0786800F099FA7BE1BB6958
:10386C00002B00F0B180FB6903F00103002B05D1A4
:10387C003B6A03F49073002B00F0A6807B6A03F084
:10388C000103002B0AD03B6A03F48073002B05D094
:10389C007B681B6C43F001027B681A647B6A03F043
:1038AC000403002B0AD0FB6903F00103002B05D0A5
:1038BC007B681B6C43F002027B681A647B6A03F022
:1038CC000203002B0AD0FB6903F00103002B05D087
:1038DC007B681B6C43F004027B681A647B6A03F000
:1038EC000803002B0FD03B6A03F02003002B04D1FC
:1038FC00FB6903F00103002B05D07B681B6C43F0C4
:10390C0008027B681A647B681B6C002B00F01E811C
:10391C007B6A03F02003002B07D03B6A03F02003E3
:10392C00002B02D0786800F032FA7B681B685B6968
:10393C0003F04003002B14BF01230023DBB27B6197
:10394C007B681B6C03F00803002B02D17B69002BF6
:10395C0031D0786800F074F97B681B685B6903F000
:10396C004003002B23D07B681B685A697B681B685B
:10397C0022F040025A617B689B6B002B13D07B6852
:10398C009B6B764A5A637B689B6B1846FEF792F8E2
:10399C000346002B16D07B689B6B5B6B7A68926B33
:1039AC00104698470EE0786800F0ECF80AE078686A
:1039BC0000F0E8F806E0786800F0E4F87B68002294
:1039CC001A64C3E000BFC1E07B681B6B012B40F0A5
:1039DC00A1807B6A03F01003002B00F09B803B6AF4
:1039EC0003F01003002B00F095800023FB607B6834
:1039FC001B681B68FB607B681B685B68FB60FB6873
:103A0C007B681B685B6903F04003002B4ED07B681E
:103A1C009B6B1B685B683B823B8A002B00F0988099
:103A2C007B689B8D3A8A9A4280F092807B683A8AB6
:103A3C00DA857B689B6B9B69202B2BD07B681B6882
:103A4C00DA687B681B6822F48072DA607B681B681A
:103A5C005A697B681B6822F001025A617B681B68FB
:103A6C005A697B681B6822F040025A617B682022ED
:103A7C0083F83E207B6800221A637B681B68DA6837
:103A8C007B681B6822F01002DA607B689B6B18461F
:103A9C00FDF7D5FF7B689A8D7B68DB8D9BB2D31AC3
:103AAC009BB21946786800F076F851E07B689A8DE5
:103ABC007B68DB8D9BB2D31A7B827B68DB8D9BB2E0
:103ACC00002B47D07B8A002B44D07B681B68DA68BC
:103ADC007B681B6822F49072DA607B681B685A69F9
:103AEC007B681B6822F001025A617B68202283F8F4
:103AFC003E207B6800221A637B681B68DA687B684F
:103B0C001B6822F01002DA607B8A1946786800F094
:103B1C0042F81FE07B6A03F08003002B08D03B6A5D
:103B2C0003F08003002B03D0786800F0C9F812E092
:103B3C007B6A03F04003002B0DD03B6A03F040037B
:103B4C00002B08D0786800F00AF904E000BF02E00E
:103B5C0000BF00E000BF2837BD4680BDA53C000873
:103B6C0080B483B000AF786000BF0C37BD4680BC1A
:103B7C00704780B483B000AF786000BF0C37BD468F
:103B8C0080BC704780B483B000AF786000BF0C3746
:103B9C00BD4680BC704780B483B000AF78600B46E4
:103BAC007B8000BF0C37BD4680BC704780B584B0AD
:103BBC0000AFF860B9603B601346FB712CE0BB6949
:103BCC00B3F1FF3F28D0BB69002B07D0FDF720FED7
:103BDC0002463B68D31ABA699A421DD2FB681B682D
:103BEC00DA68FB681B6822F4D072DA60FB681B6829
:103BFC005A69FB681B6822F001025A61FB6820229B
:103C0C0083F83D20FB68202283F83E20FB680022CD
:103C1C0083F83C2003230FE0FB681B681A68BB6821
:103C2C001340BA689A420CBF01230023DBB21A4638
:103C3C00FB799A42C3D0002318461037BD4680BD8D
:103C4C0080B483B000AF78607B681B68DA687B68EF
:103C5C001B6822F49072DA607B681B685A697B6877
:103C6C001B6822F001025A617B681B6B012B07D188
:103C7C007B681B68DA687B681B6822F01002DA60CC
:103C8C007B68202283F83E207B6800221A6300BFE9
:103C9C000C37BD4680BC704780B584B000AF7860EF
:103CAC007B685B6AFB60FB680022DA85FB6800229C
:103CBC00DA84F868FFF766FF00BF1037BD4680BD99
:103CCC0080B485B000AF78607B6893F83D30DBB290
:103CDC00212B3ED17B689B68B3F5805F14D17B6848
:103CEC001B69002B10D17B681B6AFB60FB681B886F
:103CFC001A467B681B68C2F308025A607B681B6A11
:103D0C009A1C7B681A6208E07B681B6A591C7A68EB
:103D1C0011621A787B681B685A607B68DB8C9BB2DB
:103D2C00013B9BB27A681946D184002B0FD17B687A
:103D3C001B68DA687B681B6822F08002DA607B689B
:103D4C001B68DA687B681B6842F04002DA6000236B
:103D5C0000E0022318461437BD4680BC704780B57E
:103D6C0082B000AF78607B681B68DA687B681B6880
:103D7C0022F04002DA607B68202283F83D207868CC
:103D8C00FFF7EEFE002318460837BD4680BD80B510
:103D9C0086B000AF78607B6893F83E30DBB2222BA4
:103DAC0040F099807B689B68B3F5805F17D17B6886
:103DBC001B69002B13D100237B617B689B6A3B61E1
:103DCC007B681B685B689BB2C3F308039AB23B69C0
:103DDC001A807B689B6A9A1C7B689A6226E07B68D7
:103DEC009B6A7B6100233B617B689B68B3F5805FBA
:103DFC0007D07B689B68002B0AD17B681B69002B62
:103E0C0006D17B681B685B68DAB27B691A7008E0C4
:103E1C007B681B685B68DBB203F07F03DAB27B69FB
:103E2C001A707B689B6A5A1C7B689A627B68DB8D74
:103E3C009BB2013B9BB27A681946D185002B48D1C5
:103E4C007B681B68DA687B681B6822F02002DA60EA
:103E5C007B681B68DA687B681B6822F48072DA6006
:103E6C007B681B685A697B681B6822F001025A61E7
:103E7C007B68202283F83E207B681B6B012B23D1AF
:103E8C007B6800221A637B681B68DA687B681B6896
:103E9C0022F01002DA607B681B681B6803F01003C9
:103EAC00102B0AD10023FB607B681B681B68FB602E
:103EBC007B681B685B68FB60FB687B689B8D1946A5
:103ECC007868FFF768FE02E07868FFF752FE00237F
:103EDC0002E0002300E0022318461837BD4680BDDF
:103EEC0080B584B000AF78607B681B681B6923F4D5
:103EFC0040517B68DA687B681B680A431A617B68EF
:103F0C009A687B681B691A437B685B691343BB60C7
:103F1C007B681B68DB6823F4B05323F00C037A68CE
:103F2C001268B9680B43D3607B681B685B6923F428
:103F3C0040717B689A697B681B680A435A617B688D
:103F4C001B682C4A934203D1FEF7BCFBF86002E0DD
:103F5C00FEF7A4FBF860FA6813469B0013449A0022
:103F6C001A447B685B689B00B2FBF3F3224AA2FB0A
:103F7C0003235B091901FA6813469B0013449A004A
:103F8C001A447B685B689B00B2FBF3F21A4BA3FBF1
:103F9C0002035B09642000FB03F3D31A1B013233C9
:103FAC00154AA2FB03235B0903F0F0031944FA68DA
:103FBC0013469B0013449A001A447B685B689B0071
:103FCC00B2FBF3F20C4BA3FB02035B09642000FB76
:103FDC0003F3D31A1B013233074AA2FB03235B09F9
:103FEC0003F00F027B681B680A449A6000BF10370D
:103FFC00BD4680BD003801401F85EB51014B186850
:10400C00704700BF3C00002070B500260C4D0D4CD5
:10401C00641BA410A64209D100F05CFC00260A4DDA
:10402C000A4C641BA410A64205D170BD55F8043B84
:10403C0098470136EEE755F8043B98470136F2E70E
:10404C00CC490008CC490008CC490008D0490008EC
:10405C0003460244934200D1704703F8011BF9E771
:10406C000EB46FF0004100B59CB01DAB02900690F1
:10407C00079104910848094953F8042B05910068ED
:10408C0002A9019300F068F80022029B1A701CB080
:10409C005DF804EB03B070473C0000200802FFFF02
:1040AC002DE9F0478E6882469E420C4690461F468C
:1040BC0038D88A8912F4906F32D025680969013397
:1040CC00A5EB010965694B4405EB450505EBD57579
:1040DC006D109D4238BF1D46530531D5294600F061
:1040EC0053FB064650B90C234FF0FF30CAF8003092
:1040FC00A38943F04003A381BDE8F0874A462169B8
:10410C0000F0CEFAA38923F4906343F08003A381DB
:10411C0026614E4426603E466561A5EB0905A56007
:10412C00BE4200D93E4632464146206800F0C6FAEF
:10413C00A36822689B1B32440020A3602260DBE74B
:10414C002A4600F07BFB06460028E1D15046216947
:10415C0000F0CEFAC7E700002DE9F04F98468B89A6
:10416C0007461B060D4614469DB00ED50B6963B968
:10417C00402100F009FB2860286120B90C233B602A
:10418C004FF0FF30D1E040236B61002309932023D3
:10419C008DF8293030234FF00109CDF80C80DFF871
:1041AC00A4818DF82A3023469A4613F8012B0AB1C4
:1041BC00252AF9D1BAEB040B0BD05B4622462946D3
:1041CC003846FFF76DFF013000F0AA80099A5A4477
:1041DC0009929AF80030002B00F0A28000234FF0D7
:1041EC00FF32CDE905230AF1010A049307938DF8F8
:1041FC0053301A935446052214F8011B514800F011
:10420C0041FA049AD8B9D00644BF20238DF8533014
:10421C00110744BF2B238DF853309AF800302A2B0A
:10422C0015D0544600204FF00A0C079A214611F87D
:10423C00013B303B092B4ED9B0B1079214E0A0EBF7
:10424C00080309FA03F31343A2460493D2E7039B32
:10425C00191D1B680391002BBBBF5B4242F002028D
:10426C0007930793B8BF049223782E2B0CD1637855
:10427C002A2B35D1039B02341A1D1B680392002B89
:10428C00B8BF4FF0FF330593DFF8C8A003225046A8
:10429C00217800F0F7F940B14023A0EB0A0003FAB3
:1042AC0000F0049B01340343049314F8011B062211
:1042BC0025488DF8281000F0E5F9002838D0234B5C
:1042CC001BBB039B073323F0070308330393099BA2
:1042DC003344099367E70C4601200CFB0232A5E737
:1042EC0000234FF00A0C194601340593204610F8B0
:1042FC00012B303A092A03D9002BC5D00591C3E70D
:10430C00044601230CFB0121F0E703AB00932A4682
:10431C0038460F4B04A9AFF30080421C0646D6D199
:10432C00AB895B063FF52CAF09981DB0BDE8F08F4B
:10433C0003AB00932A463846054B04A900F07CF8E1
:10434C00EBE700BF98490008A249000800000000F4
:10435C00AD4000089E4900082DE9F04716469946E5
:10436C008A680B6907469342B8BF1346336091F8CD
:10437C0043200C46DDF820800AB1013333602368FA
:10438C00990642BF336802333360256815F0060581
:10439C0006D104F1190AE36832689B1AAB4228DC97
:1043AC0094F84320131E226818BF012392062DD4C3
:1043BC004946384604F14302C047013020D02368F7
:1043CC00E56803F00603042B18BF002532684FF094
:1043DC000006A36808BFAD1A226908BF25EAE57577
:1043EC009342C4BF9B1AED181A34B5421AD100205F
:1043FC0008E00123524649463846C047013003D1F4
:10440C004FF0FF30BDE8F0870135C4E73020E118EC
:10441C0081F843005A1C94F845102244023382F868
:10442C004310C5E70123224649463846C0470130B0
:10443C00E6D00136D9E700002DE9FF470C46277E70
:10444C009146782F80469A460C9904F1430207D87E
:10445C00622F0AD8002F00F0D980582F00F0A480CA
:10446C0004F1420684F842703AE0A7F16303152B7D
:10447C00F6D801A050F823F0DD440008F144000800
:10448C006D4400086D4400086D4400086D4400083C
:10449C00F14400086D4400086D4400086D440008A8
:1044AC006D440008FF45000821450008E14500085F
:1044BC006D4400086D440008214600086D44000856
:1044CC00214500086D4400086D440008E9450008CA
:1044DC000B6804F142061A1D1B680A6084F842300E
:1044EC000123A4E0256808682E0600F104030AD510
:1044FC0005680B60002D03DA2D236D4284F84330E0
:10450C000A235E4819E015F0400F05680B6018BFD0
:10451C002DB2EFE70B682568181D0860280601D539
:10452C001D6802E06906FBD51D886F2F0CBF0823A0
:10453C000A235248002184F843106668002EA8BF55
:10454C002168A660A4BF21F0040121600DB9002EE2
:10455C004DD01646B5FBF3F103FB1157C75D06F8BA
:10456C00017D2F46BB420D46F4D9082B0BD1236895
:10457C00DF0708D5236961689942DEBF302306F84E
:10458C00013C06F1FF36921B22614B462146404608
:10459C00CDF800A003AAFFF7DFFE01304CD14FF09D
:1045AC00FF3004B0BDE8F087344884F845700E68DD
:1045BC00236856F8045B1F060E6014D5D90744BF58
:1045CC0043F0200323601DB9236823F020032360EC
:1045DC001023AFE7236843F0200323607823284897
:1045EC0084F84530E3E75E0648BFADB2E6E7164611
:1045FC00BBE70B6826681D1D60690D6035061B68DE
:10460C0001D5186002E07106FBD518800023164610
:10461C002361BAE70B681A1D0A601E680021304638
:10462C00626800F02FF808B1801B6060636823613A
:10463C00002384F84330A8E73246494640462369B4
:10464C00D0470130ABD023689B0713D4E068039BA1
:10465C009842B8BF1846A4E7012332464946404663
:10466C00D04701309BD00135E36803995B1AAB420C
:10467C00F2DCEBE7002504F11906F5E7A94900087F
:10468C00BA490008034610B5C9B202449342184611
:10469C0001D1002003E0047801338C42F6D110BD27
:1046AC000A44914200F1FF3300D1704710B511F864
:1046BC00014B914203F8014FF9D110BD884210B55E
:1046CC0001EB020402D98442234607D8431EA142BF
:1046DC0008D011F8012B03F8012FF8E7014602442A
:1046EC008A4200D110BD13F8014D02F8014DF7E7D5
:1046FC0038B50546002943D051F8043C0C1F002B5B
:10470C00B8BFE41800F0D0F81E4A1368104633B94D
:10471C00636014602846BDE8384000F0CBB8A34273
:10472C000AD921686218934201BF1A685B68521853
:10473C00226063600460EDE71A465B680BB1A3422C
:10474C00FAD911685018A0420BD1206801445018B6
:10475C0083421160DED118685B68014411605360BC
:10476C00D8E702D90C232B60D4E7206821188B42A0
:10477C0001BF19685B680918216063605460C9E760
:10478C0038BD00BF0C010020F8B5CD1C25F0030589
:10479C0008350C2D38BF0C25002D064601DBA9422F
:1047AC0003D90C2333600020F8BD00F07DF82149BB
:1047BC000A6814469CB9204F3B6823B92146304601
:1047CC0000F062F838602946304600F05DF8431C72
:1047DC0023D10C233046336000F06CF8E3E72368F8
:1047EC005B1B17D40B2B03D923601C44256004E0FE
:1047FC006368A2420CBF0B605360304600F05AF85D
:10480C0004F10B00231D20F00700C21ACCD01B1A98
:10481C00A350C9E722466468CCE7C41C24F0030407
:10482C00A042E3D0211A304600F02EF80130DDD141
:10483C00CFE700BF0C01002010010020F8B507469F
:10484C0014460E4621B91146BDE8F840FFF79CBF4F
:10485C0022B9FFF74DFF25462846F8BD00F030F889
:10486C00A0420FD221463846FFF78EFF054600289E
:10487C00F2D031462246FFF713FF31463846FFF798
:10488C0037FFE9E73546E7E738B50023054D044621
:10489C0008462B60FCF766FD431C02D12B6803B164
:1048AC00236038BD54020020014800F011B800BF4D
:1048BC005C020020014800F00CB800BF5C02002034
:1048CC0051F8043C181F002BBCBF0B58C018704784
:1048DC0070477047F8B500BFF8BC08BC9E467047DF
:0C48EC00F8B500BFF8BC08BC9E46704741
:1048F800415F5245443A2025640D0A00415F475202
:1049080045454E3A2025640D0A000000415F59458F
:104918004C3A2025640D0A00485F5245443A202548
:10492800640D0A00485F475245454E3A2025640DFC
:104938000A000000485F59454C3A2025640D0A00DA
:104948004D5F5245443A2025640D0A004D5F475299
:1049580045454E3A2025640D0A0000004D5F594533
:104968004C3A2025640D0A000203040506070809CD
:104978000A0B0C0D0E0F10100000000000000000C4
:1049880001020304060708090000000001020304ED
:10499800232D302B2000686C4C0065666745464720
:1049A80000303132333435363738394142434445A3
:1049B8004600303132333435363738396162636412
:0449C8006566000020
:0449CC0031010008AD
:0449D0000D010008CD
:1049D4002C010000080020008000000101000000FC
:1049E4006300000005000000020000000500000054
:1049F40003000000020000000500000003000000A6
:104A04000024F40010000000010000004000002019
:104A14000000000000000000000000000000000092
:104A24000000000000000000000000000000000082
:104A34000000000000000000000000000000000072
:104A44000000000000000000000000000000000062
:104A54000000000000000000000000000000000052
:104A64000000000000000000000000000000000042
:0400000508001721B7
:00000001FF
